:060000000A128A11ED2F27
:10033C0081309F00C03083169F000800F0007008C9
:10034C00831203139900080064008001840A0406D8
:10035C00031900340406AB290713871719309900C9
:10036C0018151812831298178316981683121816DC
:10037C00831618138312181308000030710208300A
:10038C0003197002031CCD29F001F101080085301E
:10039C00F20072089F057008F20002300310F20D93
:1003AC00FF3E031DD4290310720DF30073089F0444
:1003BC00803083169F000330F3009730F200F20B6D
:1003CC00E529F30BE529EA29831203131F151F19DD
:1003DC00ED291E08F10083161E08F00008000030FD
:1003EC007102083003197002031CFF29F001F1019E
:1003FC0008008530F20072089F057008F200023088
:10040C000310F20DFF3E031D062A0310720DF300BC
:10041C0073089F04813083169F000330F3009730DC
:10042C00F200F20B172AF30B172A1C2A8312031360
:10043C001F151F191F2A1E08F10083161E08F00035
:10044C000800B001B101F401F5017408F000700767
:10045C00A23E840083130008F100840A0008F20015
:10046C007408F3007307A03E840071088000840AAE
:10047C00720880000130F4070318F50A0030F50704
:10048C007508803AFF0080307F02031D4F2A1D3013
:10049C007402031C2B2A8312031335088316DB000A
:1004AC00831234088316DA000800B001B101F4019C
:1004BC00F5017408F0007007DE3E84008313000819
:1004CC00F100840A0008F2007408F3007307DC3EA4
:1004DC00840071088000840A720880000130F407DF
:1004EC000318F50A0030F5077508803AFF008030D4
:1004FC007F02031D832A09307402031C5F2A8312B6
:10050C0003133B088316EF0083123A088316EE00A0
:10051C0008000030FC000030FB000030FA00003016
:10052C00F90073087204710470040319E42AFD01C4
:10053C00FD0AF31BAF2A0130F8000310F00DF10D8A
:10054C00F20DF30DF80BA32A0130F8007808FD0723
:10055C009F2A0130F8000310F90DFA0DFB0DFC0D6C
:10056C00F80BB12A73087702031DC62A72087602AB
:10057C00031DC62A71087502031DC62A7008740271
:10058C00031CD72A7008F4027108031C710FF502C2
:10059C007208031C720FF6027308031C730FF70228
:1005AC00791401300310F30CF20CF10CF00CFF3E3B
:1005BC00031DD82A0130FD02031DAF2A7C08F3006D
:1005CC007B08F2007A08F1007908F000080000308E
:1005DC00AB000030AA000030A9000030A800B60122
:1005EC00B7010A128A1147240A128A1102303B02FF
:1005FC00B83003193A0203180C2B00303B02CE30F2
:10060C0003193A02031C0C2BBC014C2B0530D100F6
:10061C005108BD000A128A1147240A128A110230AD
:10062C003B02B83003193A020318262B00303B0268
:10063C00CE3003193A02031C262BBC01BC0A4C2BEE
:10064C000630D1005108BD000A128A1147240A1243
:10065C008A1102303B02B83003193A0203183F2BBF
:10066C0000303B02CE3003193A02031C3F2B023000
:10067C00492B0730D1005108BD000A128A114724BA
:10068C000A128A110330D1005108BC000A128A11D7
:10069C005B220A128A110A128A11D2230030AB0093
:1006AC000030AA000030A9000030A800080000307B
:1006BC008312A7000030A6000030A5000030A40073
:1006CC00B201B301CF01D001831203132408C4007B
:1006DC002508C5002608C6002708C7004F08C80013
:1006EC004807A03E840083130008C900840A000850
:1006FC00CA004908CB004A08CC00CD01CE014B08FA
:10070C00C4074C0803184C0F8C2B8D2BC5074D08B8
:10071C0003184D0F922B932BC6074E0803184E0A45
:10072C00C7074708A7004608A6004508A5004408C7
:10073C00A4000130CF070318D00A0030D0075008AE
:10074C00803AFF0080307F02031DAE2B1E304F021B
:10075C00031C6A2B0030F3000030F2000030F10073
:10076C001E30F000831203132708F7002608F6004A
:10077C002508F5002408F4000A128A118F2271084A
:10078C00B3007008B2003208C4004408C00033083B
:10079C00C4004408C100080000308312A3000030DC
:1007AC00A2000030A1000030A000B201B301CF01C3
:1007BC00D001831203132008C4002108C5002208AD
:1007CC00C6002308C7004F08C8004807DC3E840059
:1007DC0083130008C900840A0008CA004908CB002A
:1007EC004A08CC00CD01CE014B08C4074C080318B5
:1007FC004C0F012C022CC5074D0803184D0F072C6C
:10080C00082CC6074E0803184E0AC7074708A30052
:10081C004608A2004508A1004408A0000130CF07FB
:10082C000318D00A0030D0075008803AFF008030FF
:10083C007F02031D232C0A304F02031CDF2B0030D8
:10084C00F3000030F2000030F1000A30F0008312A7
:10085C0003132308F7002208F6002108F5002008EE
:10086C00F4000A128A118F227108AF007008AE00D2
:10087C002E08C4004408BE002F08C4004408BF0062
:10088C000800C73083120313C4004C2CC40B4B2C30
:10089C004F2C83120313CC01CD01831203133D089B
:1008AC00C400C5014408F0004508F1000A128A1181
:1008BC00F5210A128A1171088312B7007008B6006C
:1008CC00073083120313C5007C30C400C40B6C2C9E
:1008DC00C50B6C2C0000831203132808C4002908D4
:1008EC00C5002A08C6002B08C7003608C800370800
:1008FC00C900CA01CB014808C40749080318490FAD
:10090C00882C892CC5074A0803184A0F8E2C8F2C6B
:10091C00C6074B0803184B0AC7074708AB00460825
:10092C00AA004508A9004408A8000130CC07031808
:10093C00CD0A0030CD074D08803AFF0080307F0291
:10094C00031DAA2C14304C02031C532C0030F30052
:10095C000030F2000030F1001430F0008312031369
:10096C002B08F7002A08F6002908F5002808F400DF
:10097C000A128A118F227108BB007008BA00080095
:10098C000030AB000030AA000030A9000030A800F5
:10099C00B601B701C73083120313D100D52CD10B8C
:1009AC00D42CD82C83120313D901DA01831203132C
:1009BC003D08D100D2015108F0005208F1000A1292
:1009CC008A11C3210A128A1171088312B7007008A8
:1009DC00B600073083120313D2007C30D100D10B48
:1009EC00F52CD20BF52C0000831203132808D10030
:1009FC002908D2002A08D3002B08D4003608D500C9
:100A0C003708D600D701D8015508D1075608031866
:100A1C00560F112D122DD20757080318570F172DEB
:100A2C00182DD30758080318580AD4075408AB00DC
:100A3C005308AA005208A9005108A8000130D90790
:100A4C000318DA0A0030DA075A08803AFF008030BF
:100A5C007F02031D332D28305902031CDC2C00307F
:100A6C00F3000030F2000030F1002830F000831267
:100A7C0003132B08F7002A08F6002908F5002808AC
:100A8C00F4000A128A118F220A128A117108B50019
:100A9C007008B4000A128A1127220A128A110A124B
:100AAC008A115D230030AB000030AA000030A90091
:100ABC000030A80008000030AB000030AA00003065
:100ACC00A9000030A800B601B7010B308312031344
:100ADC00C5006130C400C40B712DC50B712D762D72
:100AEC0083120313CC01CD01831203133D08C40000
:100AFC00C5014408F0004508F1000A128A11C3210F
:100B0C000A128A1171088312B7007008B6000B30F4
:100B1C0083120313C5006130C400C40B932DC50BA5
:100B2C00932D982D831203132808C4002908C5009F
:100B3C002A08C6002B08C7003608C8003708C900A9
:100B4C00CA01CB014808C40749080318490FAF2D47
:100B5C00B02DC5074A0803184A0FB52DB62DC60788
:100B6C004B0803184B0AC7074708AB004608AA00F6
:100B7C004508A9004408A8000130CC070318CD0A89
:100B8C000030CD074D08803AFF0080307F02031DF6
:100B9C00D12D28304C02031C7A2D0030F30000308C
:100BAC00F2000030F1002830F000831203132B0800
:100BBC00F7002A08F6002908F5002808F4000A12A4
:100BCC008A118F227108AD007008AC002C08C4008B
:100BDC004408C3002D08C4004408C2000030AB0018
:100BEC000030AA000030A9000030A80008008316CD
:100BFC0086018801FF308500FF30890087010A12C9
:100C0C008A11B2210A128A110A128A119E210A1221
:100C1C008A11043083120313DD000C30DC003330F6
:100C2C00DB00DB0B172EDC0B172EDD0B172E8312C4
:100C3C00031388018601B801B901413083120313F3
:100C4C00DC00ED30DB00DB0B292EDC0B292E2E2EED
:100C5C0083120313BD010A128A1161250A128A112B
:100C6C000D3083120313DC00FB30DB00DB0B3C2E5E
:100C7C00DC0B3C2E73300A128A11A4210A128A1141
:100C8C000D3083120313DC00FB30DB00DB0B4C2E2E
:100C9C00DC0B4C2E6B300A128A11A4210A128A1119
:100CAC000D3083120313DC00FB30DB00DB0B5C2EFE
:100CBC00DC0B5C2E8312031343080A128A11A42145
:100CCC000A128A110D3083120313DC00FB30DB0097
:100CDC00DB0B6E2EDC0B6E2E6B300A128A11A421EC
:100CEC000A128A110D3083120313DC00FB30DB0077
:100CFC00DB0B7E2EDC0B7E2E73300A128A11A421A4
:100D0C000A128A110D3083120313DC00FB30DB0056
:100D1C00DB0B8E2EDC0B8E2E8312031342080A1271
:100D2C008A11A4210A128A110D3083120313DC00DC
:100D3C00FB30DB00DB0BA02EDC0BA02E831203138D
:100D4C00BD01BD0A0A128A11C6240A128A110D307D
:100D5C0083120313DC00FB30DB00DB0BB32EDC0B4C
:100D6C00B32E70300A128A11A4210A128A110D3086
:100D7C0083120313DC00FB30DB00DB0BC32EDC0B1C
:100D8C00C32E6D300A128A11A4210A128A110D3059
:100D9C0083120313DC00FB30DB00DB0BD32EDC0BEC
:100DAC00D32E8312031340080A128A11A4210A12AB
:100DBC008A110D3083120313DC00FB30DB00DB0BDC
:100DCC00E52EDC0BE52E6D300A128A11A4210A12D5
:100DDC008A110D3083120313DC00FB30DB00DB0BBC
:100DEC00F52EDC0BF52E70300A128A11A4210A1292
:100DFC008A110D3083120313DC00FB30DB00DB0B9C
:100E0C00052FDC0B052F8312031341080A128A11DC
:100E1C00A4210A128A110D3083120313DC00FB305B
:100E2C00DB00DB0B172FDC0B172F043083120313A3
:100E3C00DB005B08BD000A128A11ED220A128A112E
:100E4C006C300A128A11A4210A128A110D308312F5
:100E5C000313DC00FB30DB00DB0B322FDC0B322FFF
:100E6C0069300A128A11A4210A128A110D308312D8
:100E7C000313DC00FB30DB00DB0B422FDC0B422FBF
:100E8C00831203133C080A128A11A4210A128A1134
:100E9C000D3083120313DC00FB30DB00DB0B542F13
:100EAC00DC0B542F66300A128A11A4210A128A1103
:100EBC000D3083120313DC00FB30DB00DB0B642FE3
:100ECC00DC0B642F68300A128A11A4210A128A11D1
:100EDC000D3083120313DC00FB30DB00DB0B742FB3
:100EEC00DC0B742F831203133E080A128A11A421FF
:100EFC000A128A110D3083120313DC00FB30DB0065
:100F0C00DB0B862FDC0B862F0D3083120313DC00DA
:100F1C00FB30DB00DB0B902FDC0B902F68300A12C0
:100F2C008A11A4210A128A110D3083120313DC00DA
:100F3C00FB30DB00DB0BA02FDC0BA02F66300A1282
:100F4C008A11A4210A128A110D3083120313DC00BA
:100F5C00FB30DB00DB0BB02FDC0BB02F8312031349
:100F6C003F080A128A11A4210A128A110D30831229
:100F7C000313DC00FB30DB00DB0BC22FDC0BC22FBE
:100F8C00013083120313B8070318B90A0030B907EC
:100F9C003908803AFF0080307F02031DD72F0530BF
:100FAC003802031C232E0330831203133302343014
:100FBC0003193202031CE42F0614212E02302D02D9
:100FCC00893003192C020318212E0610212E8313AD
:100FDC002030840044300A128A11AA210A128A1184
:100FEC00A0308400F0300A128A11AA2183010A125F
:040FFC008A11FD2D2C
:02400E00F13F80
:00000001FF
